:02000000942941
:06000600000000000800EC
:10000C000F3083120313FC004730FD00FD0B0C284E
:0A001C00FC0B0C2800000000080097
:0E002600213083120313FD00FD0B1728080084
:1000340083160313BB1B21288312861223288312E1
:10004400861683163B1B2928831206122B2883123B
:1000540006168316BB1A312883128611332883129D
:10006400861583163B1A3928831206113B288312FE
:100074000615831633184128831206144328831265
:1000840006108614032086108316BB194C2883128D
:1000940086124E288312861683163B19542883121F
:1000A40006125628831206168316BB185C28831280
:1000B40086115E288312861583163B1864288312E2
:1000C4000611662883120615831633186C288312CA
:1000D40006146E28831206108614032086108316D5
:0C00E400331C7628062077281320080023
:1000F0008316031398187E28000078283B08831283
:04010000990008005A
:100104008316031333103808BB001A2083163314E4
:020114000800E1
:1001160083160313BA01380884000008B9003908A9
:10012600003A0319A1283908BB0078208316BA0AB9
:0E0136003A08380784000008B9009228080033
:0E014400831203136F088A006E088200080001
:10015200BB28803083160313B400CE28C030B4000D
:10016200CE289430B400CE28D430B400CE288030CB
:10017200B400CE28831603133408013A0319AA28BF
:100182003408023A0319AF283408033A0319B22893
:100192003408043A0319B528B8283503F0003408A6
:1001A200F0077008B4007008BB001A2083163310E1
:1001B200B70137083607840000080319E828370812
:1001C200360784000008B8008220B70ADA28331400
:0201D200080023
:1001D400831603139816903083129800831687179A
:1001E400071383128C1EF9281A08F000F32808005C
:1001F400203083160313B8008B200B30FB0026300D
:10020400FC005D30FD00FD0B0529FC0B0529FB0BF3
:100214000529000000006130B8008B203408B800C4
:100224008B206B30B8008B200B30FB002630FC0099
:100234005D30FD00FD0B1C29FC0B1C29FB0B1C294C
:10024400000000003508B8008B201A30BB0078206D
:100254000B30FB002630FC005D30FD00FD0B302927
:0E026400FC0B3029FB0B3029000000000800C5
:1002720083160313861006100611861106128612C3
:1002820083128610061086120612861106110620A7
:1002920006200620861506158614032086100620E1
:1002A200861403208610062086140320861006205A
:1002B2000611861403208610062086140320861059
:1002C20086118616861403208610062086120615CD
:1002D2008614032086100611861403208610062039
:1002E2008614032086100615861403208610062025
:1002F2000611861403208610861606168615061524
:0E03020086140320861006208316331408008C
:10031000A2208A110A128000840AEE0A0319EF0A49
:08032000F003031D8829080009
:100328006A2239210130BB001A200C308316BB0029
:100338001A203330831699001815EA200230FB0082
:100348000430FC00BA30FD00FD0BA829FC0BA829DD
:10035800FB0BA8290000FF3083168500860180303A
:10036800870083128512851DD029051DC6290130F5
:100378008316B4000130B500A030B600A92083125E
:100388008516D02901308316B4000130B500383005
:10039800B600A92083128512051EEF2901308316A5
:1003A800B4000130B5002B30B600A9204430B400A9
:1003B8005030B500FA2085163330FB00BB30FC0006
:1003C800DF30FD00FD0BE629FC0BE629FB0BE629D7
:1003D8000000000085120630FB001330FC00AD3031
:1003E800FD00FD0BF529FC0BF529FB0BF529000099
:0E03F800000001308316BB001A20B729022A2C
:1004D400203084004B3083120313F0000830EE0008
:1004E4000230EF008821A03084001330F000533034
:1004F400EE000230EF0088216B3084000330F000FE
:0C0504006630EE000230EF008821080095
:10041000413454342B3443344D34473446343D3422
:0604200031340D340034FC
:1004260045344D3445345234473445344E344334E0
:0A04360059342134213421340034FC
:1004400052346534613464347934203474346F3414
:08045000203467346F340034DE
:100458002B3431343234333434343534363437345D
:0804680038343934303400341B
:1004700045346D3465347234673465346E346334B6
:100480007934203441346C3465347234743421341A
:02049000003436
:10049200413454342B3443344D34473453343D3493
:0404A20022340034CC
:1004A600463472346F346E347434203444346F34CA
:1004B6006F34723420346934733420344F347034DA
:0604C60065346E340034C1
:0604CC0022340D3400345F
:02400E007A3BFB
:00000001FF
