:020000009E2937
:06000600000000000800EC
:10000C000F3083120313FC004730FD00FD0B0C284E
:0A001C00FC0B0C2800000000080097
:0E002600213083120313FD00FD0B1728080084
:1000340083160313C31B21288312861223288312D9
:1000440086168316431B2928831206122B28831233
:1000540006168316C31A3128831286113328831295
:1000640086158316431A3928831206113B288312F6
:10007400061583163B18412883120614432883125D
:1000840006108614032086108316C3194C28831285
:1000940086124E2883128616831643195428831217
:1000A40006125628831206168316C3185C28831278
:1000B40086115E28831286158316431864288312DA
:1000C400061166288312061583163B186C288312C2
:1000D40006146E28831206108614032086108316D5
:0C00E4003B1C762806207728132008001B
:1000F0008316031398187E2800007828430883127B
:04010000990008005A
:10010400831603133B104008C3001A2083163B14C4
:020114000800E1
:1001160083160313C201400884000008C100410889
:10012600003A0319A1284108C30078208316C20AA1
:0E0136004208400784000008C100922808001B
:0E014400831203136F088A006E088200080001
:10015200BB28803083160313BC00CE28C030BC00FD
:10016200CE289430BC00CE28D430BC00CE288030BB
:10017200BC00CE28831603133C08013A0319AA28AF
:100182003C08023A0319AF283C08033A0319B22883
:100192003C08043A0319B528B8283D038312F0003D
:1001A20083163C088312F00770088316BC00831282
:1001B20070088316C3001A2083163B10BF013F0844
:1001C2003E07840000080319EE283F083E0784001A
:0E01D2000008C0008220BF0AE0283B1408008D
:1001E000831603139816903083129800831687178E
:1001F000071383128C1EFF281A08F000F928080044
:10020000203083160313C0008B200B308312FB00B9
:100210002630FC005D30FD00FD0B0C29FC0B0C2989
:10022000FB0B0C290000000061308316C0008B20FE
:100230003C08C0008B206B30C0008B200B30831239
:10024000FB002630FC005D30FD00FD0B2529FC0B7A
:100250002529FB0B25290000000083163D08C0005E
:100260008B201A30C30078200B30FB002630FC00B6
:100270005D30FD00FD0B3A29FC0B3A29FB0B3A29B6
:0602800000000000080070
:1002860083160313861006100611861106128612AF
:100296008312861006108612061286110611062093
:1002A60006200620861506158614032086100620CD
:1002B6008614032086100620861403208610062046
:1002C6000611861403208610062086140320861045
:1002D60086118616861403208610062086120615B9
:1002E6008614032086100611861403208610062025
:1002F6008614032086100615861403208610062011
:10030600061186140320861086160616861506150F
:0E031600861403208610062083163B14080070
:10032400A2208A110A128000840AEE0A0319EF0A35
:08033400F003031D92290800EB
:10033C00822243210130C3001A200C308316C300E3
:10034C001A203330831699001815F0200230FB0068
:10035C000430FC00BA30FD00FD0BB229FC0BB229B5
:10036C00FB0BB2290000FF3083168500860180301C
:10037C00870083120613051CCE2901308316BC009E
:10038C000130BD00B130BE00A92083120617CF2961
:10039C000613851CE02901308316BC000130BD001A
:1003AC00A030BE00A9200230BC000130BD003830A6
:1003BC00BE00A9208312051E002A01308316BC0042
:1003CC000130BD002B30BE00A9204430BC005030A1
:1003DC00BD00002106173330FB00BB30FC00DF30C2
:1003EC00FD00FD0BF729FC0BF729FB0BF72900008F
:1003FC00000006130630FB001330FC00AD30FD008E
:10040C00FD0B062AFC0B062AFB0B062A000000003B
:0C041C0001308316C3001A20C129132AE6
:10050400203084004E3083120313F0001930EE00C3
:100514000230EF009221A03084001B300313F0005E
:0C0524006730EE000230EF00922108006A
:10043200413454342B3443344D34473446343D3400
:0604420031340D340034DA
:1004480045344D3445345234473445344E344334BE
:0A04580059342134213421340034DA
:1004620052346534613464347934203474346F34F2
:08047200203467346F340034BC
:10047A002B3431343234333434343534363437343B
:08048A003834393430340034F9
:1004920045346D3465347234673465346E34633494
:1004A2007934203441346C346534723474342134F8
:0204B200003414
:1004B400413454342B3443344D34473453343D3471
:0404C40022340034AA
:0604C80022340D34003463
:1004CE0041346C346C34203464346F346F34723491
:1004DE007334203463346C346F3473346534643461
:0204EE000034D8
:1004F00044346F346F34723420344F347034653484
:040500006E34003421
:02400E005A0056
:00000001FF
